:1004E70050617373776F72643A00596573004E4FAA
:0204F7002000E3
:04051C0002150403BD
:10018C001204D37BFF7A0479E77D017F0112044AC4
:10019C001200038F17E517700302022AD3940A503A
:1001AC0041C3E5129404E51194005028AE13AF142A
:1001BC007C007D0A1202798E138F14E51775F00AF4
:1001CC0084E5F02514F514E43513F5130512E51246
:1001DC0070020511750C04AB14AA137D017F021279
:1001EC00048BE517640B7036E514B5160DE513B5E5
:1001FC0015087BFF7A0479F180067BFF7A0479F588
:10020C007D0E7F0112044AE4F513F514F511F51275
:10021C00750C04AB14AA137D017F0212048BE51735
:10022C00640C600302019CF513F514F511F51275BD
:10023C000C04AB14AA137D017F0212048B02019CE7
:1004BE00EF4E6010007D027CC7DCFEDDFCEF1F708E
:0404CE00EF1E80ECB1
:0104D2002207
:0604F900C2A58F80D2A70E
:0804FF007F027EEFDEFEDFFC50
:0105070022D1
:0A050800C2A61204F9C2A70204FF04
:10046D00CFCDCFCECCCE12028B7C007D0A12028B6B
:04047D00ED2430FF3B
:0A048100D2A61204F9C2A70204FF7C
:1004A800AE07BE0104ED148006BE0209ED243F44E8
:0604B80080FF120508227E
:1004D3007F381205087F0C1205087F061205087F76
:0404E3000102050805
:0A051200AC031204A8AF0402048138
:06044A008B088A09890AF3
:100450001204A8E4FDAB08AA09A90A8D82758300DD
:0C04600012024CFF60061204810D80E9BE
:01046C00226D
:0C0417007F0AEA24FFFDE434FFFC7E00B5
:080423008E0D8F0E8C0F8D1061
:10042B007F017E00E4FBEBC39510E50F6480F8744D
:0E043B008098500AAC0DAD0E1202790B80E8CD
:010449002290
:04048B008A0A8B0B43
:10048F001204A8AA0CEAD39400400D120417AC0A68
:08049F00AD0B12046D1A80ED93
:0104A7002232
:10036C001204A8C3EA64809480400B7F2B12048192
:10037C008A1D8B1E800E7F2D120481C3E49BF51EFB
:10038C00E49AF51DAA1CEAD39400400D120417AC94
:09039C001DAD1E12046D1A80ED66
:0103A5002235
:0403A6008A218B22FB
:1003AA001204A8AA23EAD3940040297F1012041940
:1003BA00AC21AD22CFCDCFCECCCE12028BEF540FD3
:1003CA00FEC3940AEE5004243080022437FF12043C
:0403DA00811A80D133
:0103DE0022FC
:0403DF008A268B27B8
:1003E3001204A8AA28EAD394004028EA24FFFDE4D3
:1003F30034FFFC7F027E00120423AC26AD27CFCD51
:10040300CFCECCCE12028BEF54012430FF120481E5
:030413001A80D27A
:0104160022C3
:10000300E4F5087590FFC2932097137F14FE120442
:10001300BE3097FD7F147E001204BE750801209642
:10002300147F147E001204BE3096FD7F147E0012EE
:1000330004BE7508052095147F147E001204BE309B
:1000430095FD7F147E001204BE7508092094147F69
:10005300147E001204BE3094FD7F147E001204BE91
:1000630075080D7590FFC2922097147F147E0012BD
:1000730004BE3097FD7F147E001204BE7508022073
:1000830096147F147E001204BE3096FD7F147E000A
:100093001204BE7508062095147F147E001204BE58
:1000A3003095FD7F147E001204BE75080A20941457
:1000B3007F147E001204BE3094FD7F147E00120470
:1000C300BE75080E7590FFC2912097147F147E00B1
:1000D3001204BE3097FD7F147E001204BE75080320
:1000E3002096147F147E001204BE3096FD7F147E8A
:1000F300001204BE7508072095147F147E001204B5
:10010300BE3095FD7F147E001204BE75080B20944B
:10011300147F147E001204BE3094FD7F147E0012FF
:1001230004BE75080F7590FFC2902097147F147E4C
:10013300001204BE3097FD7F147E001204BE7508C2
:10014300042096147F147E001204BE3096FD7F14A3
:100153007E001204BE7508082095147F147E0012D9
:1001630004BE3095FD7F147E001204BE75080C207A
:1001730094147F147E001204BE3094FD7F147E001D
:080183001204BE750810AF085C
:01018B002251
:030000000202E019
:0C02E000787FE4F6D8FD75812802032722
:10024C00BB010CE58229F582E5833AF583E0225067
:10025C0006E92582F8E622BBFE06E92582F8E222B1
:0D026C00E58229F582E5833AF583E49322CB
:10027900EF8DF0A4A8F0CF8CF0A428CE8DF0A42E99
:02028900FE2253
:10028B00BC000BBE0029EF8DF084FFADF022E4CC57
:10029B00F875F008EF2FFFEE33FEEC33FCEE9DEC20
:1002AB00984005FCEE9DFE0FD5F0E9E4CEFD22ED66
:1002BB00F8F5F0EE8420D21CFEADF075F008EF2FB0
:1002CB00FFED33FD4007985006D5F0F222C398FDA1
:0502DB000FD5F0EA223E
:1002EC0002018CE493A3F8E493A34003F68001F29B
:1002FC0008DFF48029E493A3F85407240CC8C33313
:10030C00C4540F4420C8834004F456800146F6DFE1
:10031C00E4800B010204081020408090051CE47E50
:10032C00019360BCA3FF543F30E509541FFEE493D6
:10033C00A360010ECF54C025E060A840B8E493A39D
:10034C00FAE493A3F8E493A3C8C582C8CAC583CAC8
:10035C00F0A3C8C582C8CAC583CADFE9DEE780BE80
:0105200000DA
:00000001FF
